:100000000C9474030C94BB030C94BB030C94BB03BF
:100010000C94BB030C94BB030C94BB030C94BB0368
:100020000C94BB030C94BB030C94D8290C94AA2AFF
:100030000C9463240C94BB030C94BB030C94BB037F
:100040000C94BB030C94BB030C94BB030C94BB0338
:100050000C94BB030C94BC240C94BB030C94BB0306
:100060000C94BB030C94BB030C94BB030C94BB0318
:100070000C94BB030C94BB030C94BB030C94BB0308
:100080000C94BB030C94BB030C94BB030C94BB03F8
:100090000C94BB030C94BB030C94BB030C94BB03E8
:1000A0000C94BB030C94BB030C94BB03EB12EE1239
:1000B0000E131F1327133213351338133B138113F9
:1000C00081133E13411346135313601363136713D5
:1000D0007413B519B519E719E719291A621B621BC0
:1000E000621B471ADC1AED1AED1A521B621B621BC7
:1000F0005B1BFE1BFE1B101C101C071C101C101C85
:10010000101CFE1BFE1B0C1C101C101C0C1C172BA7
:100110003E2B362C3E2B362C8A2BAD2B362C042C2A
:10012000132C29001E001F002000210022002400A3
:100130002500260027002D002E002A0035002B0068
:1001400014001A000800150017001C0018000C000D
:10015000120013002F003000310039000400160097
:10016000070009000A000B000D000E000F0033000D
:10017000340028002800E10064001D001B00060078
:100180001900050011001000360037003800E500A6
:100190000151E000E300E2000000000023002C0019
:1001A000000000000000E600E7007600E400010027
:1001B0003A003B003C003D003E0040004100420050
:1001C000430044004500010001000100010001005E
:1001D00001000100010001000100010001004A00CE
:1001E00052004D000100010001000100010001006A
:1001F00001000100010001000100010050004F005A
:1002000001000100010001000100010001000100E6
:100210000100010001000100510001000100010086
:1002200001000100000000003F000100000000008C
:1002300000000100010001000100010001000100B7
:1002400001000100010001000100010001000100A6
:100250000100010001000100010001000100010096
:100260000100010001000100010001000100010086
:100270000100010001000100010001000100010076
:100280000100010001000100010001000100010066
:100290000100010001000100010001000100010056
:1002A0000100010001000100010001000100010046
:1002B000000000000100010000000000000001003B
:1002C00001000100010000000000000000002A2BD6
:1002D00028000000000000000000000000000000F6
:1002E0000029000000002C1E34202122243426275F
:1002F000252E362D3738271E1F2021222324252680
:100300003333362E37381F0405060708090A0B0C4D
:100310000D0E0F101112131415161718191A1B1C95
:100320001D2F3130232D350405060708090A0B0C53
:100330000D0E0F101112131415161718191A1B1C75
:100340001D2F3130354C000000000000000000007F
:10035000000000000000000000000000000000009D
:10036000000000000000000000007E0F00D4FFFF2E
:10037000FFC7000000781E0F0500047F3F1F643296
:1003800014643214783C1E1E140A052223252628E4
:10039000292A2C2D2F3032333536383A3B3D3E401A
:1003A00042434547494A4C4E5051535557595A5C60
:1003B0005E6062646668696B6D6F71737577797B77
:1003C0007D7F81838587898A8C8E90929496989A76
:1003D0009C9E9FA1A3A5A7A8AAACAEAFB1B3B4B68B
:1003E000B8B9BBBCBEBFC1C2C3C5C6C7C9CACBCCE6
:1003F000CDCED0D1D2D2D3D4D5D6D7D7D8D9D9DAB9
:10040000DADBDBDBDCDCDCDCDCDDDDDDDDDCDCDC2D
:10041000DCDCDBDBDBDADAD9D9D8D7D7D6D5D4D355
:10042000D2D2D1D0CECDCCCBCAC9C7C6C5C3C2C12A
:10043000BFBEBCBBB9B8B6B4B3B1AFAEACAAA8A787
:10044000A5A3A19F9E9C9A98969492908E8C8A893F
:10045000878583817F7D7B79777573716F6D6B691C
:1004600068666462605E5C5A5957555351504E4CF1
:100470004A4947454342403E3D3B3A3836353332A0
:10048000302F2D2C2A292826252322FFAA7F5540EC
:100490000001010101010101010102020202020247
:1004A000020202030303030303030304040404041A
:1004B00004040505050505060606060607070707E1
:1004C0000708080808090909090A0A0A0B0B0B0C96
:1004D0000C0C0D0D0D0E0E0E0F0F0F101011111133
:1004E00012121313141415151616171718181919B4
:1004F0001A1A1B1B1C1D1D1E1E1F20202122222319
:100500002424252626272829292A2B2C2D2D2E2F59
:1005100030313232333435363738393A3B3C3D3E70
:100520003F404142434445464748494A4C4D4E4F5F
:1005300050515354555658595A5B5D5E5F61626421
:10054000656668696B6C6D6F7072737577787A7BAE
:100550007D7E8082838587888A8C8E8F9193959605
:10056000989A9C9EA0A2A3A5A7A9ABADAFB1B3B525
:10057000B7BABCBEC0C2C4C6C9CBCDCFD1D4D6D801
:10058000DBDDDFE2E4E7E9EBEEF0F3F5F8FAFDFF9F
:100590000C03640079007A00360030000000080384
:1005A000640079007A0000000403090409025B007A
:1005B000030100A0FA090400000103010100092160
:1005C000110100012240000705810308000A090407
:1005D0000100020300000009211101000122220094
:1005E0000705820320000107050303200001090419
:1005F00002000103000000092111010001226D0029
:100600000705840320000A1201100100000008728F
:10061000D70A000100010200010660FF0961A10183
:100620000962150026FF00952075088102096315EF
:100630000026FF00952075089102C005010980A1E0
:1006400001850319012AB700150126B70095017528
:10065000108100C0050C0901A101850419012AA01F
:1006600002150126A002950175108100C00501093F
:1006700006A1018505050719E029E7150025019563
:1006800008750181020507190029EF15002501955C
:10069000F07501810205081901290595057501917B
:1006A00002950175039101C005010906A101050725
:1006B00019E029E7150025019508750181029501CA
:1006C000750881010507190029FF150026FF00950F
:1006D0000675088100050819012905950575019120
:1006E00002950175039101C011241FBECFEFDAE01E
:1006F000DEBFCDBF04B603FE27C080917C0390917E
:100700007D03A0917E03B0917F038730904BA7407B
:10071000B04BD1F410927C0310927D0310927E03B3
:1007200010927F0314BE84B7877F84BF0FB6F894FE
:10073000A8958091600088618093600010926000AD
:100740000FBEE0E0F8E3099511E0A0E0B1E0E0EAD7
:10075000FBE502C005900D92A43EB107D9F723E056
:10076000A4EEB1E001C01D92AC37B207E1F70E94E0
:1007700099260C94CE2D0C94000081E0089581E020
:1007800008950C94BF0308950C94C3031F93CF9353
:10079000DF9300D000D01F92CDB7DEB749835A83D4
:1007A0006B833091690289819A81311114C066236B
:1007B00059F0222349F00E943721182F682F898190
:1007C0009A810E94E02003C00E940B21182F6981AA
:1007D0007A81812F04C00E94372169817A810F902C
:1007E0000F900F900F900F90DF91CF911F910C946D
:1007F0005314FC01262F40815181628173818481D1
:100800000C94C603CF93DF93EC0160E00E94F903E0
:10081000BE01DF91CF910C94C4038F929F92AF924F
:10082000BF92CF92DF92EF92FF920F931F936B01D3
:100830007C0181E090E0A0E0B0E04C015D0104C0EB
:10084000880C991CAA1CBB1C4A95D2F7AC01BD01AF
:1008500004C0440F551F661F771F2A95D2F74829F9
:1008600059296A297B2904C0880F991FAA1FBB1F19
:100870000A95D2F78A019B010C211D212E213F21CF
:10088000401751076207730739F4BC01CD016C2989
:100890007D298E299F290AC080959095A095B095B5
:1008A000BC01CD016C217D218E219F211F910F91D3
:1008B000FF90EF90DF90CF90BF90AF909F908F9080
:1008C00008950F93382F262F6091CF027091D00298
:1008D0008091D1029091D202042F432F0E940D04E7
:1008E0000F910C941C200E94E8070E94CF050C94E5
:1008F00025080C94210808950E94EC1B0E947B049B
:100900002FEF84E39CE0215080409040E1F700C04D
:1009100000000C94E2240F931F93CF93DF938C017C
:1009200061E00E94F903EC01B8010E9443128823A0
:1009300009F44BC0B801CE010E94C103882309F419
:1009400044C0B801CE010E9488158823F1F1B80196
:10095000CE010E94DA158823C1F1B801CE010E94B0
:100960000517882391F1B801CE010E948D108823CC
:1009700061F1F8018281882309F1CA358DE5D80734
:10098000C1F050F4C115FCE5DF0781F0CE3DDC4538
:10099000A9F40E94482319C0CB35EDE5DE0761F0CC
:1009A000CC35DD4559F40E94CA2108C00E947C0460
:1009B0000CC00E94D32102C00E94D621C801DF9141
:1009C000CF911F910F910C94BD0380E0DF91CF91E7
:1009D0001F910F910895DF92EF92FF920F931F9353
:1009E000CF93DF93E82FF0E0EA53FD4FD490282F08
:1009F00026952695269530E0F901EA59FC4F049199
:100A0000877010E0082E02C0159507950A94E2F74A
:100A100001701127F901EA5AFC4FE490F12C082EDD
:100A200002C0F594E7940A94E2F791E0E922FF24EA
:100A3000F901EA5BFC4FC491D0E002C0D595C7959F
:100A40008A95E2F7C170DD270115110519F081EED5
:100A50000E94DA18E114F10419F086EE0E94DA1807
:100A60008D2D0E946B19EF2819F086EE0E9428192F
:100A7000012B19F081EE0E942819CD2B51F08CE248
:100A8000DF91CF911F910F91FF90EF90DF900C9429
:100A90006B19DF91CF911F910F91FF90EF90DF9035
:100AA0000895EF92FF920F931F93CF93DF93EC0182
:100AB000162F0AE08881882309F455C0813009F097
:100AC00043C08981813041F47E0182E0E80EF11C4F
:100AD0008A810E946B1909C0823049F47E01E2E0EC
:100AE000EE0EF11C8A810E94DA18E7012FC08330D4
:100AF00041F47E01F2E0EF0EF11C8A810E94281978
:100B0000F4CF843011F0219621C02A81229680E012
:100B100090E030E0205331092A30310558F4089F25
:100B2000A001099F500D1124C901840F951F219622
:100B30002881EFCF009751F0EFE9FFE03197F1F70F
:100B400000C000000197F6CF0E94EB042196812F90
:100B5000882309F4AFCFEFE9FFE03197F1F700C048
:100B600000008150F5CFDF91CF911F910F91FF9041
:100B7000EF90089560E00C94510508950C94BD0524
:100B800081E00895CF93C82F0E94C005882329F0E3
:100B9000C1FF02C0899A01C08998CF910895819AB6
:100BA00089980895CF93C82F0E94BE058C2F0E946C
:100BB000C205CF91089580E090E008950895880FD0
:100BC000991FFC01EA58FC4F859194910895CF93A9
:100BD000DF930E9453140E94F906EC0181159045A1
:100BE00008F043C0C11580E4D80708F0CBC0C03E70
:100BF000D10528F5C03CD10508F0B3C0C83AD105ED
:100C000078F4C53AD10508F0A4C0C130D10509F483
:100C1000ECC008F4E8C0C430D10508F0E6C0E3C079
:100C2000CF3BD10508F0DFC0C85AD0E0CC0FDD1FA4
:100C3000CC5DDE4F0990D881C02DD464D6C0C115DB
:100C400090E2D90750F4C11521E0D20708F0CDC0D9
:100C5000C83ED10508F4C9C0C6C0C11580E3D80795
:100C600008F086C0CE019F707FC0C11595E5D907F9
:100C700008F043C0C11524E5D20708F09AC0C11599
:100C800082E5D80708F5C11591E5D90708F07DC0C0
:100C9000CE0174E0969587957A95E1F783709C2F45
:100CA000937021E030E002C0220F331F9A95E2F7E3
:100CB0003C68382BCF70C695C69580E2C89FE0018E
:100CC0001124C22BD32B91C09E01237033278C2F6C
:100CD00086958695C115D34508F05CC0C1E0D0E08B
:100CE00002C0CC0FDD1F2A95E2F720E2829FC001EF
:100CF0001124C82BD92BDC6878C0C11529E5D2078F
:100D0000A0F4C11588E5D80708F058C0C11596E5CC
:100D1000D90708F068C08C2F0E948D078F71C82FEB
:100D2000D0E0DC2FCC27D06260C0C1152AE5D20705
:100D300008F449C0CE0190568115904208F053C086
:100D40008D2F8F710E948D07DD27D0628F71D82B78
:100D50004CC0C55AD0E0CE5ADE4FC881D0E0D06436
:100D600044C0CE01805C91090E94DF05EC013DC0CA
:100D7000CE019927D3FF03C0EC01D86C36C0EC013B
:100D8000D06C33C0DF70D06A30C0DC2FCC27C16F8D
:100D9000D06A2BC0C1E0D0E002C0CC0FDD1F2A9585
:100DA000E2F720E2829FC0011124C82BD92BDA6818
:100DB0001CC0DC2FCC27C46FD06A17C0DC2FCC2717
:100DC000C06FD06A12C08C2F8F700E948D0794E084
:100DD000D695C7959A95E1F7CF70D0E0DC2FCC2758
:100DE000D069C82B02C0C0E0D0E0CE01DF91CF9126
:100DF00008958238910569F1B0F48133910509F4C1
:100E00006DC048F48932910509F463C08A329105B6
:100E100009F469C008958533910509F455C08933F3
:100E20009105B9F00895833E910569F138F4803E4B
:100E30009105B1F0823E910509F10895863E910534
:100E4000A9F1873E9105B9F1843E910509F064C08E
:100E500023C02091200320FD4FC021FD4DC00895E7
:100E60008091200380FD44C08091210380FF44C015
:100E70008091200384FD42C083EE4DC08091200309
:100E800082FF38C0F5CF8091200382FD33C080916E
:100E9000210380FD31C0ECCF8091210381FF32C05E
:100EA0008091200384FD2AC087EE35C08091200305
:100EB00083FF26C0F5CF8091200383FD21C0809160
:100EC000210381FD1FC0ECCF8091200385FD1CC054
:100ED0001DC08091200385FD19C016C0809120039C
:100EE00086FD16C017C08091200386FD13C010C078
:100EF00089E311C082EE0FC080EE0DC080E00BC010
:100F000086EE09C084EE07C089E205C085E303C010
:100F10008AE201C081E390E008959091200392FF5E
:100F20000DC0282F2871283019F4877F846006C0EF
:100F3000282F2471243011F48B7F886093FF0DC01B
:100F4000282F2871283119F4877E846106C0282F44
:100F50002471243111F48B7E88612091210320FFBC
:100F60000DC0382F3871383019F4877F816006C082
:100F7000382F3171313011F48E7F886021FF0DC020
:100F8000282F2871283119F4877E816106C0282F07
:100F90002171213111F48E7E886194FD877E089540
:100FA0000C941D120E9470088FE39CE90197F1F7E1
:100FB00000C000000E94700880E00E940C0880FFC2
:100FC00004C00E94D0070C94E22408950C94D20728
:100FD0000E94A022811102C00E9448230E94AB22DD
:100FE0008093FC020E94B3229093210380932003FC
:100FF0000E94E6070E94AF22682F70E080E090E038
:101000000E94E21F6091CF027091D0028091D102C4
:101010009091D2020C941A20E82FF0E0EE0FFF1FFF
:10102000E45DFC4F808191810895089580EA8A955E
:10103000F1F7089500C008950C94160808950C94D3
:101040001E080C941F080C941E080C942308F89496
:10105000E82FE295EF70F0E031A1282F2F7081E0AA
:1010600090E001C0880F2A95EAF7982F9095932376
:1010700091A392A1892B82A3789408950F931F9333
:10108000CF93DF9380E30E94270886EC0E94270815
:1010900080EF0E94270885EF0E94270884EF0E94B6
:1010A0002708C5E5D1E003E611E089910E942708F1
:1010B0000C171D07D1F7E2E2F3E0ACE2B3E01192C6
:1010C00011921D921D9283E0EC32F807C1F785E082
:1010D0000E94FE08DF91CF911F910F910C94730431
:1010E0007F928F929F92AF92BF92CF92DF92EF92B8
:1010F000FF920F931F93CF93DF93C3E6D1E082E279
:10110000A82E83E0B82E9CE2E92E93E0F92E712CF4
:1011100001E010E06E018881F894E82FE295EF700D
:10112000F0E021A18F70A80102C0440F551F8A95DD
:10113000E2F7CA01922F982B91A392A1809589235F
:1011400082A378940E941A08E5E5F1E020E030E0FF
:10115000812C912C4191A42FA295AF70B0E0909674
:101160008C9190E04F7002C0959587954A95E2F773
:1011700080FD08C0C801022E02C0880F991F0A9482
:10118000E2F702C080E090E0882A992A2F5F3F4F63
:101190002E303105F9F62196F60180810E9427084C
:1011A0000E941C08F501808191818816990621F022
:1011B0009182808281E001C080E0782AF2E0AF0E67
:1011C000B11CEA14FB0409F0A5CF272D45E06CE221
:1011D00073E082E293E00E94FF080E947904872D69
:1011E000DF91CF911F910F91FF90EF90DF90CF9003
:1011F000BF90AF909F908F907F9008950895FF9239
:101200000F931F93CF93DF93F82E092F162FD72F0D
:10121000C42F222349F081E08093E8010E949524A5
:101220009093E7018093E6018091E8018823D9F04B
:101230008091E6019091E7010E94AD24069798F015
:10124000EF2DF02FA12FBD2F80E090E04C2F50E02C
:101250008417950734F4219131912D933D93019694
:10126000F7CF1092E801DF91CF911F910F91FF907E
:101270000895EF92FF920F931F93CF93DF938B010B
:10128000682F11110AC0442329F0E82FF0E0E0573D
:10129000FB4F6491762F862F75C0212F30E0E82F09
:1012A000F0E0442321F0E057FB4FE491F0E046E00A
:1012B000049FC0011124CFEFD0E0BE010E94762C24
:1012C0004BEA4603C001479F900D1124800F911DEA
:1012D000800F911D982F990F890FAE01421B530B60
:1012E0004E9FD0014F9FB00D5E9FB00D11249B2FDC
:1012F000189FA0011124452F55278E01041B150BA3
:101300000E9FA0010F9F500D1E9F500D11247E01B6
:10131000E81AF108E29E8001E39E100DF29E100D86
:101320001124212F3327C21BD30BCE9F9001CF9FB7
:10133000300DDE9F300D112462307105A9F048F4A4
:101340006115710569F061307105C9F48B2F752F36
:101350000DC06430710581F058F06630710579F484
:101360007E2F8B2F932F0DC0832F7B2F9E2F09C095
:101370008E2F7B2F952F05C08E2F732F02C07E2FAF
:10138000852F692FDF91CF911F910F91FF90EF90E3
:10139000089541E00E943909089508950E94C909FD
:1013A0000895CF93DF93762FE901682F842F0E9451
:1013B000CE09798368838A83DF91CF9108958091E4
:1013C0003603282F269530E02115310519F4817058
:1013D000826005C02B32310524F0817084658093D2
:1013E0003603089588E090E00C946F2DCF92DF9241
:1013F000EF92FF926B017C010E94DF09B701A60109
:1014000088E090E0FF90EF90DF90CF900C948D2DCE
:1014100060913603709137038091380390913903BE
:101420000C94F609E6E3F3E083E0808311828FEF0A
:1014300082838383148260817181828193810C9481
:10144000F6098091360380FF02C08695089580E0FA
:10145000089590913A03933018F49F5F90933A0364
:10146000882351F0609136037091370380913803DF
:10147000909139030C94F609089581E00C94290A9F
:1014800090913A03992319F0915090933A0388234D
:1014900051F0609136037091370380913803909139
:1014A00039030C94F609089581E00C94400A809168
:1014B0003A03089580933A03662351F0609136030E
:1014C0007091370380913803909139030C94F60999
:1014D000089560E00C945A0A809137030895809132
:1014E0003803089580913903089570E00C945C11DD
:1014F000609108018091360380FF0AC08091070146
:1015000023E0829FC0011124855C9C4F0C94750AD6
:101510008091090190910A01891780F7E82FF0E086
:101520009F01220F331FE20FF31FE55CFC4F118276
:10153000108212828F5FF0CF9091360390FF16C019
:101540009091090120910A01921770F4E92FF0E0BF
:10155000DF01AA0FBB1FEA0FFB1FE55CFC4F818375
:10156000608342839F5FF0CF0C94780A0895CF93F5
:10157000DF9300D01F92CDB7DEB79091360390FF76
:101580000AC09E012F5F3F4F0E94D1094B816981A4
:101590008A810E949C0A0F900F900F90DF91CF914B
:1015A0000895CF93DF93EC01EC81F0E0E557FC4F19
:1015B0004491E6E3F3E0628181810E94B70A8C8165
:1015C0008F5F8C83DF91CF910895CF93DF93EC01F0
:1015D000E6E3F3E0438162818C810E94B70A8C814B
:1015E0008F5F8C83DF91CF9108950F931F93CF93DB
:1015F000DF9300D01F92CDB7DEB78C018091E90157
:1016000081110AC09E012F5F3F4F4FEF6FEF0E9485
:10161000D1098A818093E901F8018481813051F0F8
:1016200028F0823061F44091E9010AC08091E9011B
:1016300040E007C06091E90140E080E003C040E085
:1016400080E060E00E949C0AF801848190E00196AD
:1016500063E070E00E948A2C84830F900F900F90BB
:10166000DF91CF911F910F910895AF92BF92CF92CA
:10167000DF92EF92FF920F931F93CF93DF9300D0EF
:101680001F92CDB7DEB7182FF62E042FE22E9091C1
:10169000360390FF6DC0E92FE695AE2FB0E0A85954
:1016A000BE4F8C91809343029E7F923061F49E01E5
:1016B0002F5F3F4F812F0E94D1094B8169818A8121
:1016C0000E949C0A43C0823019F4009139033EC045
:1016D000863019F41091370339C08930D9F3893134
:1016E000A9F5E9518E2F8170D82EE695F0E0E557E7
:1016F000FB4FA590B490C12CBB2460910B01C61682
:1017000018F52C2D30E0A29EC001A39E900DB29E34
:10171000900D112470E00E94762C812FD11002C010
:10172000860F01C0861B90910901290F311DA90167
:10173000440F551F240F351F255C3C4F402F6F2D44
:101740000E94D109C394D9CF0E94780A109337031D
:10175000F092380300933903EE2051F06091360384
:101760007091370380913803909139030E94F609F4
:101770000F900F900F90DF91CF911F910F91FF90DD
:10178000EF90DF90CF90BF90AF900895E6E3F3E045
:101790009181282F438162818AE0890F0C94350B57
:1017A00081E00C94C60BE6E3F3E09181282F43819E
:1017B000628186EF890F0C94350B81E00C94D30B7A
:1017C000E6E3F3E062812AE0620F08F46FEF282F6E
:1017D000438181810C94350B81E00C94E00BE6E3AE
:1017E000F3E062812AE0621B08F460E0282F438165
:1017F00081810C94350B81E00C94EF0BE6E3F3E070
:1018000043812AE0420F08F44FEF282F6281818143
:101810000C94350B81E00C94FE0BE6E3F3E043817E
:101820002AE0421B08F440E0282F628181810C9459
:10183000350B81E00C940D0C20E00C94350BFF92DD
:101840000F931F93CF93DF93EC01F12C0FEF10E078
:1018500060910B01F616F0F4809109012F2D30E014
:10186000280F311DC901880F991F280F391F255CCA
:101870003C4F70E0C8010E948A2C962F8C814091C9
:10188000390360913803F99E800D11240E94D1091B
:10189000F394DECF0E94780A9A818C8190FF02C077
:1018A0008F5F01C081508C83DF91CF911F910F9189
:1018B000FF900895BF92CF92DF92EF92FF920F9325
:1018C0001F93CF93DF93FC01828180FF02C00FEF53
:1018D00001C001E010E080910B01181708F040C032
:1018E00080910901C12ED12CE601C80FD11DCE0176
:1018F000880F991FC80FD91FC55CDC4F1982188249
:101900001A8234E0E32EF12CB12C8091EB018B0D87
:10191000813114F08F7005C087FF03C090910B01D7
:10192000890F082E000C990BC816D90691F48091E6
:1019300039038E9DA0018F9D500D1124559547951B
:10194000559547959E0160913803809137030E9419
:10195000D109B00EF1E0EF1AF108B9F61F5FBBCF65
:101960000E94780A8091EB01013031F4811102C0AC
:1019700080910B01815007C090E0019660910B01AE
:1019800070E00E948A2C8093EB01DF91CF911F9130
:101990000F91FF90EF90DF90CF90BF900895CF937D
:1019A0008091090190910A01891770F4E82FF0E005
:1019B0009F01220F331FE20FF31FE55CFC4F1182E2
:1019C000108212828F5FF0CFC0E060910B01C617CA
:1019D000C0F5EC2FF0E070E0CF010E948A2C20913E
:1019E0000901820F2091EA01022E000C330B90E0D6
:1019F000E217F307CCF020910601022E000C330B06
:101A00002E173F078CF09C01220F331F820F931F6C
:101A10009C01255C3C4F40913903609138038091D3
:101A200037030E94D1090BC0FC01EE0FFF1F8E0F80
:101A30009F1FFC01E55CFC4F118210821282CF5F78
:101A4000C4CF0E94780A209105018091EA01820F9B
:101A50008093EA0190910601920F90930601191666
:101A60005CF4082E000C990B40910B0150E04150A2
:101A70005109841795071CF0219520930501CF91FA
:101A800008958F929F92AF92BF92CF92DF92EF9282
:101A9000FF920F931F93CF93DF938C01FC0144813E
:101AA000C42FD0E09E01DE010E94D52C9B01AC0129
:101AB0000E94EB2C6B017C01E0E2F0E0EC1BFD0BE3
:101AC000A5E5B0E09B01AC010E94EB2C4B015C0151
:101AD0009F01DF010E94CD2C9B01AC010E94F62CDE
:101AE0009B01AC012C0D3D1D4E1D5F1DC501B401B8
:101AF0000E949E2CC22FD22F2A3228F4F3E02F9F6F
:101B0000900111240DC025E530E02C1B3109C901DD
:101B1000880F991F280F391F37FF02C02F5F3F4FD3
:101B200035952795C22FC095F12C85E5E82EED1A45
:101B300080910B01F816C8F4F1FC02C08E2D01C093
:101B40008D2F909109012F2D30E0290F311DA90112
:101B5000440F551F240F351F255C3C4F4C2F6091BF
:101B600038030E94D109F394E3CF0E94780AF80168
:101B70008481811102C091E003C0803219F49FEF8B
:101B80009093040190910401890FF8018483DF91FF
:101B9000CF911F910F91FF90EF90DF90CF90BF906A
:101BA000AF909F908F9008950F931F93CF93DF93E3
:101BB000EC0100E010E080910B01282F30E00217CB
:101BC000130724F5909109019801290F311DA901EE
:101BD000440F551F240F351F255C3C4F869590E020
:101BE0004C81081719071CF4442331F002C041113D
:101BF00003C04091390301C040E0609138038091F7
:101C000037030E94D1090F5F1F4FD5CF0E94780A7A
:101C10008C8190E00196817099278C83DF91CF9120
:101C20001F910F9108957F928F929F92AF92BF92D2
:101C3000CF92DF92EF92FF920F931F93CF93DF9398
:101C4000FC018280748081E08483EBE8F3E094906F
:101C5000EAE0F4E0E491A12CF5E0BF2ECC24CA9494
:101C6000D12CE9190E2F10E080910B01A81608F075
:101C7000A2C0EA2CF12C22E0281568F0BE9CF001ED
:101C8000BF9CF00D1124E451FE4F809137038083F7
:101C900080913803818371100AC0BE9CF001BF9C03
:101CA000F00D1124E451FE4F138212826AC0BE9CD3
:101CB000E001BF9CD00D1124C451DE4F8B818823DD
:101CC000F9F081508B832FEF829FC00111246C812A
:101CD00070E00E94762CFB01FF27E557FC4F8491B2
:101CE000E82FE9192FEFE29FC0011124B8010E94EB
:101CF000762C80913903689FB00111247A8341C00A
:101D00000E944A2D209139032695215830E0A901DF
:101D1000440F551F322F2227240F351F232F33271F
:101D20008217930774F582E0881588F40E944A2D83
:101D3000B6010E948A2C88830E944A2D2091380384
:101D40002695622F70E00E948A2C280F2983BE9C62
:101D5000F001BF9CF00D1124E451FE4F12828091DE
:101D60003903843120F0893C18F088EC01C084E10B
:101D7000BE9CF001BF9CF00D1124E451FE4F848302
:101D80008383809109019701280F311DC901880FB4
:101D9000991F280F391F255C3C4FBE9CF001BF9C4A
:101DA000F00D1124E451FE4F4281618180810E9437
:101DB000D109A39459CFDF91CF911F910F91FF903B
:101DC000EF90DF90CF90BF90AF909F908F907F90DB
:101DD0000C94780AE6E3F3E080818E7F8083608153
:101DE0007181828193810E94F609109244022FEF43
:101DF00080E792E0215080409040E1F700C0000071
:101E00000C94780AE6E3F3E080818E7F8083109261
:101E100044022FEF80E792E0215080409040E1F7AC
:101E200000C000000C94780A60913603669570E05B
:101E30004BE050E08CE091E00E945A2D892B19F480
:101E400081E0809344020E94952490933D02809308
:101E50003C0208959091360390FF35C09170811136
:101E600002C0926006C08B3210F0946502C0880FE9
:101E7000982B90933603662351F06091360370914E
:101E8000370380913803909139030E94F6096091DD
:101E90003603669570E04BE050E08CE091E00E94E4
:101EA0005A2D892B19F01092440202C00E94140F7F
:101EB00081E080933F024091390360913803809123
:101EC00037030C941C0C0895682F90913603969557
:101ED00081E0890F8B3208F081E00C942A0F81E0B9
:101EE0000C94640F682F9091360396958FEF890FAD
:101EF00009F48AE20C942A0F81E00C94720F61E0DD
:101F00000C942A0FE6E3F3E080818160808386955C
:101F10000C947F0F8091360380FD0C94EA0E0C9494
:101F2000820F60E00C942A0F8091420281112EC032
:101F30000E94A022811104C00E9448230E94120A1C
:101F40000E94F2096093360370933703809338033D
:101F5000909339036E7F61F40E94120A0E94F20985
:101F6000609336037093370380933803909339035B
:101F70000E94DF09109244028091360380FF03C063
:101F800086950E94910F81E0809342020895E6E3D6
:101F9000F3E080818160808386950C94910F0F938C
:101FA0001F93CF93DF9380914402882309F495C057
:101FB00080914302E0913603E695E81BE0933E02F0
:101FC000823049F4F0E0E957FC4FE491CE2FD0E0A5
:101FD00001ED1AE059C0863049F4F0E0EC57FC4FAF
:101FE000E491CE2FD0E005EE1AE04EC0893051F4D6
:101FF000E695F0E0EF57FC4FE491CE2FD0E00FE1F3
:102000001CE042C08F3051F4E695F0E0E258FC4FFE
:10201000E491CE2FD0E00AE51CE036C0853149F4CA
:10202000F0E0E558FC4FE491CE2FD0E00FEC1CE03F
:102030002BC08831D9F0833239F4E9E7F3E0C59158
:10204000D49105EF1AE020C08432A9F08532C1F4A2
:102050008E2F63E00E946A2CE92FF0E0EA58FC4FD3
:10206000E491CE2FD0E003E11EE00EC0C8E2D0E044
:1020700001E41DE009C0C4EFD1E004ED1DE004C09F
:10208000C0EDD7E00DEC19E080913F02882361F0AC
:1020900010923F020E94952490933D0280933C024F
:1020A00010924102109240020E949524E0913C025D
:1020B000F0913D028E1B9F0B8F3F9F4770F4EC0FFA
:1020C000FD1FF0933D02E0933C028CE392E0F801A7
:1020D000DF91CF911F910F910994DF91CF911F91C3
:1020E0000F910895882311F0FA0101C0FB010994B2
:1020F000CF93DF93C82FD62F0E94210A8C1740F070
:102100000E94210A8D1720F4DF91CF910C946F0F5C
:102110008C2FDF91CF910C947F0F1F93CF93DF9380
:10212000FB011281112309F4C1C0EC010E94D921E5
:102130008272CC3CFCE5DF0709F49BC008F043C089
:10214000C63CECE5DE0709F480C0D8F4C33C9CE54E
:10215000D90709F46DC038F4C23CDC4509F0A7C0CA
:102160000E948A0F6BC0C43C9CE5D90709F468C083
:10217000C53CDC4509F09BC04DED5BE060ED7BE0CC
:102180005BC0C93CFCE5DF0709F469C070F4C73CDB
:10219000ECE5DE0709F45EC0C83CDC4509F087C009
:1021A0004CEE5BE06BEF7BE047C0CA3C9CE5D90797
:1021B00009F45AC0CB3CDC4509F079C044E55AE04B
:1021C0006DE37AE039C0C13DFCE5DF0709F45EC08C
:1021D00098F4CE3C9CE5D90709F452C008F44EC0EF
:1021E000CF3CFCE5DF0709F44EC0C03DDC4509F0FB
:1021F0005EC06EE089E057C0C43D9CE5D90709F494
:102200004BC058F4C23DFCE5DF0709F442C0C33DB2
:10221000DC4509F04CC088E143C0C53D9CE5D907C9
:10222000F1F1CD35DD4509F042C06AE285E23BC0FF
:102230004CE75FE06FE67FE00E94721010E037C06D
:102240004FE65FE06CE77FE0F7CF40ED5BE06DEDE0
:102250007BE0F2CF4BEF5BE06CEE7BE0EDCF49E152
:102260005CE06AE07CE0E8CF4AE05CE069E17CE0C9
:10227000E3CF4DE35AE064E57AE0DECF81E010C0C1
:1022800065E082E010C068E086E00DC064E18FE0A8
:102290000AC067E185E107C062E289E104C083E228
:1022A0000E947F0FCBCF0E947810C8CF11E0812F02
:1022B000DF91CF911F910895279A25B12F7735B1DE
:1022C00030684FB7F894FC01CB01880F991F680F55
:1022D000791F6E0F7F1FE617F70789F0819198E04D
:1022E00035B9000000C087FF25B9880F000000C085
:1022F00000C000C025B900C09A9591F7ECCF4FBF40
:102300008FE594E00197F1F700C00000089581E0A7
:1023100008950C9487115098589A5198599A89B1F8
:102320008170499902C090E001C092E0892B8093AE
:1023300047020895E0914702EE0FEE0FE093470247
:1023400049B1842F817090E049B141FB222720F9E7
:1023500030E041FF02C022E030E0822B932B8E2B35
:10236000809347028F70E82FF0E0ED56FE4F90818A
:1023700080914602890F8093460284305CF0809100
:1023800045028F5F8093450260E080E00E948911E2
:1023900021E001C020E0809146028D3F54F48091FD
:1023A000450281508093450261E080E00E948911DE
:1023B00021E080914602082E000C990B64E070E049
:1023C0000E948A2C80934602822F089583E290E037
:1023D0000E94672D813281F484E290E00E94672D93
:1023E000883051F485E290E00E94672D91E08932B7
:1023F00009F090E0892F01C080E081700895CF93AB
:10240000C82F811102C06FEF01C061E283E290E04A
:102410000E947B2DC11102C06FEF01C068E084E211
:1024200090E00E947B2DC11102C06FEF01C069E2F4
:1024300085E290E0CF910C947B2D80E00E94FF110B
:102440000C949A22089586E290E00E94672D682FEE
:1024500070E080E090E0089586E290E00C947B2D9F
:102460000E9422120E94E61181110CC060E070E00F
:10247000CB010E942C120E94CE130E94AD1481E069
:102480000C94FF110895CF93FB01C281CC23E9F096
:102490009C0122513F452031310520F482510E9498
:1024A000BD140CC08031FFE59F0751F481E00E940C
:1024B000422043E062E081E00E946104C0E018C075
:1024C00081319F45A9F482E0F2CF8031EFE59E078C
:1024D00011F481E004C081319F4549F482E00E94FB
:1024E000632043E062E081E00E94610401C0C1E03A
:1024F0008C2FCF9108952FEFFC0120830895CF9367
:10250000DF93EC018881813889F028F48038A1F4C8
:102510000E94720A10C0823861F0833869F40E9408
:102520006C0A89830E946F0A8A8306C00E94210A6E
:1025300002C00E94570A8983DF91CF910895CF93FB
:10254000DF93EC0188818138B1F058F4803851F57F
:10255000D9810E946F0AC82F0E946C0A4D2F6C2FE0
:102560001DC08238B1F08338E9F40E94720A482F06
:102570006A81898113C089810E94910F89818111AB
:1025800004C0DF91CF910C94020FDF91CF910C9496
:10259000C70F8981DF91CF910C94690ADF91CF91A8
:1025A0000C941C0CDF91CF910895EF92FF920F9342
:1025B0001F93CF93DF93EC01062F0196E8814E2FF6
:1025C00050E0FA013197E331F10508F09AC0EA5A78
:1025D000FF4F0C94C02C198289E056C0898182304B
:1025E00039F0833061F0813029F50E94A12402C0C6
:1025F0000E9423129A838B837C836D8384C07E0127
:1026000010E0812F0E940C08F701928383831F5FE3
:10261000F2E0EF0EF11C1530A1F775C08981823010
:1026200049F46A817B818C819D810E94C62C0E9425
:102630002C1269C0602FCE010E947B1264C04B81B6
:102640006A8189810E94A0139C838D835CC02C8148
:102650003D813227232732274B816A8189810E945D
:10266000B91351C00E94CE134EC00E949F124BC09E
:102670000E947F1248C00E94080A45C00E94601450
:1026800024C00E94621499838A833DC06B8170E0EC
:1026900089819A81AE014C5F5F4F982789279827DF
:1026A0000E94651430C06B8170E089819A81AE010F
:1026B0004C5F5F4F9827892798270E948A1423C070
:1026C0000E94AD1420C00E948D1389831CC06B81B1
:1026D00070E089819A81AE014C5F5F4F982789270E
:1026E00098270E940D140FC06B8170E089819A8138
:1026F000AE014C5F5F4F9827892798270E943114BD
:1027000002C08FEF8883602FCE01DF91CF911F91A0
:102710000F91FF90EF900C948A2583E0089550E08C
:10272000440F551F2CE1629F400D511D11249A0149
:102730006CE8869F200D311D1124C90187960895EC
:102740000F931F93CF93DF930E948F138C010E94EE
:10275000672DC82FD0E0DC2FCC27C80101960E943E
:10276000672D9E01282BC901DF91CF911F910F91F9
:1027700008950F931F93CF93DF93122F032F0E947F
:102780008F13EC01602F0E947B2D612FCE010196EB
:10279000DF91CF911F910F910C947B2DAF92BF923F
:1027A000CF92DF92EF92FF920F931F93CF93DF931D
:1027B000A12CE12CF12CB12C00E010E0C0E0D0E025
:1027C0006701C00ED11EFE01EE0FFF1FEC0DFD1DB7
:1027D000EE5DFE4F259134914C2F6B2D8A2D0E947A
:1027E000B9132196CE30D10571F7045E1F4FB39413
:1027F00085E0B812E3CF8CE8E80EF11CA39483E0E7
:10280000A812D9CFDF91CF911F910F91FF90EF9038
:10281000DF90CF90BF90AF900895EF92FF920F930B
:102820001F93CF93DF93EA017A01E60EF71E8C0126
:10283000C8018796CE15DF0569F0043A21E012073A
:1028400020F40E94672D888301C0188221960F5FB3
:102850001F4FEECFDF91CF911F910F91FF90EF901F
:102860000895EF92FF920F931F93CF93DF93EA01A6
:102870007A01E60EF71E8C01C8018796CE15DF059A
:1028800059F0043A21E0120718F468810E947B2D68
:1028900021960F5F1F4FF0CFDF91CF911F910F91C6
:1028A000FF90EF900895462F833038F4753028F468
:1028B0006E3018F4672F0C94A01380E090E0089518
:1028C00080E1089585E392E00895EF92FF920F93DF
:1028D0001F93CF93DF93EA017A01E60EF71E8C0176
:1028E000C80185539E4FCE15DF0569F0053322E000
:1028F000120720F40E94672D888301C01882219658
:102900000F5F1F4FEDCFDF91CF911F910F91FF9080
:10291000EF900895EF92FF920F931F93CF93DF9361
:10292000EA017A01E60EF71E8C01C80185539E4F1D
:10293000CE15DF0559F0053322E0120718F468813F
:102940000E947B2D21960F5F1F4FEFCFDF91CF911C
:102950001F910F91FF90EF900895CF93DF93CBECF1
:10296000D1E060E0CE010E947B2D2196C11584E06C
:10297000D807B9F7DF91CF910895DF92EF92FF92D8
:102980000F931F93CF93DF9300D000D0CDB7DEB766
:10299000F82E8FE08F15E8F18FEF93E00E94672DFE
:1029A000811137C00BEC11E0FF2069F0011584E0C4
:1029B000180779F1C8010E94672D811101C0FA94AE
:1029C0000F5F1F4FF1CF19821A821B821C82DD24F8
:1029D000D39478018FEFE81AF80AC8010E94672D96
:1029E00089831A828823A9F09FEF980F933058F4B7
:1029F0008A83D9820E5F1F4FC7010E94672D8B8388
:102A0000882339F07801CE0101960E94BA0587012A
:102A1000E0CF0F900F900F900F90DF91CF911F910B
:102A20000F91FF90EF90DF9008950F931F93CF9336
:102A3000DF93C42FD22FFC0182818823C9F04093F9
:102A40004A020E949524909349028093480280E2B2
:102A50008C0F883008F057C0C77081E001C0880F24
:102A6000CA95EAF7DF91CF911F910F910C947419D9
:102A700080914A02481330C08091480290914902E7
:102A80000E94AD24883C910538F510E21D0FCD174A
:102A9000B9F080E28C0F883040F4C77081E001C04B
:102AA000880FCA95EAF70E947B19183028F581E053
:102AB0009D2F977001C0880F9A95EAF70E947419AC
:102AC000802F0E946B191830F0F4D77081E001C09C
:102AD000880FDA95EAF70AC080E28C0F883098F404
:102AE000C77081E001C0880FCA95EAF7DF91CF91E6
:102AF0001F910F910C947B19802FDF91CF911F9123
:102B00000F910C946B19DF91CF911F910F91089544
:102B10000F939C01CB01233F4CE5340731F188F43E
:102B2000283DFCE53F07D9F0293D4CE5340779F114
:102B3000273D3C45A9F506E221EE41EE67ED7CE537
:102B40002BC0253FFCE53F07E1F0A8F0263F3C45C0
:102B500039F507E225EE46EE66EF7CE51DC007E29B
:102B600025EE45EE68ED7CE517C006E221EE40EE6D
:102B700063EF7CE511C007E225EE44EE64EF7CE5EF
:102B80000BC006E221EE42EE65EF7CE505C008E2EF
:102B900021E045EE69ED7CE50E94151580E008C056
:102BA000FC018281882319F010924A0201C081E061
:102BB0000F910895CF93DF93EC01FB01828188236D
:102BC00009F41FC1C230FCE5DF0708F41BC1C631A0
:102BD0009CE5D90738F09E012A5F3C452930310534
:102BE00008F010C10E94B322909321038093200328
:102BF000C031ECE5DE0709F4C3C008F041C0C830BD
:102C00008CE5D80709F49AC0F0F4C430ECE5DE078F
:102C100009F487C068F4C2308CE5D80709F477C09E
:102C2000C330DC4509F0E3C080912003826076C0A8
:102C3000C630ECE5DE0709F46EC008F07BC0809179
:102C4000200388606BC0CC308CE5D80709F485C0C0
:102C500068F4CA30ECE5DE0709F474C008F079C006
:102C60000E94EC1B80912003806858C0CE308CE518
:102C7000D80709F476C008F07FC0809120038BC08C
:102C8000CB3FECE5DE0709F44FC018F5C3318CE506
:102C9000D80709F47DC078F4C131ECE5DE0709F40A
:102CA00073C0C231DC4509F0A2C00E94EC1B8091C8
:102CB00020038F7733C0C5318CE5D80709F472C083
:102CC00008F486C0CA3FDC4509F091C08091210319
:102CD0003EC0CF3FFCE5DF0709F45FC058F4CD3FAD
:102CE0009CE5D90709F444C008F43FC08091210352
:102CF00082602DC0C130FDE5DF0709F475C008F41E
:102D00005DC0C230DD4509F072C080E06EC08091C8
:102D10002003816003C080912003806180932003A1
:102D200066C08091200311C080912103826080934E
:102D300021035DC0809120038062F0CF8091200349
:102D40008064ECCF8091200388608460E7CF81604D
:102D5000EECF809120038E7FE1CF809120038D7F85
:102D6000DDCF80912003877FD9CF8091210318C0C8
:102D7000809121038D7FDBCF809120038F7ECECF8A
:102D8000809120038F7DCACF809120038F7BC6CF97
:102D900080912003877F8B7FC1CF809121038D7F1E
:102DA0008E7FC5CF8091200382FB222720F991E0FE
:102DB000922790FB82F990FB83F9B0CF8091210399
:102DC000982F909591708E7F892B90FB81F9AFCFD2
:102DD0000E94EC1B8091200387FB222720F991E0C1
:102DE000922790FB87F99ACF81E00E944A23809135
:102DF0002003909121030E94C4220E94EC1B80E0DA
:102E000001C081E0DF91CF910895CF93DF938631A8
:102E10009C4541F5EB010E94D921982F8A81209190
:102E2000170130911801882379F09A7A81E009F42A
:102E300080E080934B02911102C069E201C065E31A
:102E4000C9010E94E5230AC080914B02811102C092
:102E500069E201C065E3C9010E94F0230E942B22B0
:102E600080E001C081E0DF91CF91089590935102FD
:102E7000809350020895E0915002F09151023097F2
:102E800021F00190F081E02D099480E00895E09117
:102E90005002F0915102309799F0209123012223A2
:102EA00059F02091200327FF07C0DC012C911196D7
:102EB0002C93119725E02C930280F381E02D099447
:102EC000089520914E0230914F022817390771F072
:102ED00090934F0280934E02E0915002F091510284
:102EE000309721F00680F781E02D09940895209114
:102EF0004C0230914D022817390771F090934D0222
:102F000080934C02E0915002F0915102309721F0F1
:102F10000084F185E02D099408950E94A124609316
:102F200065027093660280936702909368026093D3
:102F30006102709362028093630290936402089529
:102F40000E94A124609365027093660280936702D9
:102F50009093680260935D0270935E0280935F02BB
:102F600090936002089585B7806885BF85B78068B3
:102F700085BF089581E008950C94BA1708950C94C4
:102F8000BE170C94BE170C94C1170C94BE170C946A
:102F9000C5170C94BE170E94B31788E992E20E94ED
:102FA00006250E94C9170C94C7170E94BF170C94DE
:102FB000BE170E948C240E943E080E9430120E947C
:102FC000940F0E948B110C94C3176F927F928F9273
:102FD0009F92AF92BF92CF92DF92EF92FF920F93A8
:102FE0001F93CF93DF93CDB7DEB72A970FB6F89430
:102FF000DEBF0FBECDBF0E94700881110E948D17E9
:1030000033E5832E32E0932E00E010E0C02E802FB7
:103010000E940C085C01F401619071904F016826D8
:10302000792661147104B1F40F5F1F4F053011054B
:1030300069F78FEF89838A831B820E9495248160C0
:10304000782F9D838C8349815A816B818D810E9469
:10305000A0183AC08091FC0281FD0E941508D12C75
:10306000EE24E394F12CC3018E219F21892B29F1B9
:103070000E94BC178823A9F0DE82CF82AE20BF2039
:1030800081E0AB2809F480E088870E949524816064
:10309000782F9A8789874E815F8168858A850E940B
:1030A000A018000F111FF801ED5AFD4F808191818A
:1030B000E826F926F182E08207C0D394EE0CFF1CCB
:1030C000FEE0DF12D0CFB0CF0E94CF0F0E949A1146
:1030D00081110E94A0170E943B17909152028917FC
:1030E000D1F00E943B17809352022A960FB6F894B3
:1030F000DEBF0FBECDBFDF91CF911F910F91FF902B
:10310000EF90DF90CF90BF90AF909F908F907F9087
:103110006F900C94D2052A960FB6F894DEBF0FBEBE
:10312000CDBFDF91CF911F910F91FF90EF90DF9076
:10313000CF90BF90AF909F908F907F906F900895A9
:10314000DF92EF92FF920F931F93CF93DF93CDB750
:10315000DEB72B970FB6F894DEBF0FBECDBFF42EAF
:10316000052F162FE72ED82E61110E94F921FE019E
:10317000319686E0DF011D928A95E9F77E2D4F2D6D
:10318000502F612F8D2D9E810E94A51E2B960FB66C
:10319000F894DEBF0FBECDBFDF91CF911F910F918D
:1031A000FF90EF90DF900895FC01808191810E9453
:1031B00079210895CF93882309F448C0C82F8CEF54
:1031C0008C0F813AD0F46C2F8091170190911801E7
:1031D0000E946523882349F06C2F809117019091FC
:1031E00018010E94F0230E942B226C2F809117015E
:1031F000909118010E94E5230CC080E28C0F88306A
:1032000058F4C77081E001C0880FCA95EAF70E94A0
:10321000DC21CF910C942B22EBE5EC0FE33040F452
:10322000F0E0EF52FE4F808190E0CF910C94611757
:10323000C85AC73158F4EC2FF0E0EE0FFF1FED55E0
:10324000FE4F80819181CF910C947717CF91089593
:10325000882349F1682F8CEF860F813A38F48091EA
:103260001701909118010E94F0230CC080E2860F94
:10327000883050F4677081E001C0880F6A95EAF7E2
:103280000E94E2210C942B228BE5860F833020F4E0
:1032900080E090E00C946117685A673120F480E078
:1032A00090E00C94771708951F93CF93DF93182F16
:1032B000EB010E94DA18209741F08FE99FE0019717
:1032C000F1F700C000002197F6CF812FDF91CF9159
:1032D0001F910C942819893319F06AE070E002C03C
:1032E00060E570E00C945419882321F00E94DC21E1
:1032F0000C942B220895882321F00E94E2210C9443
:103300002B220895CF92DF92EF92FF920F931F939B
:10331000CF93DF937C01062FC72FFC01D28115814B
:1033200012951F700E94B121882399F0DD2389F046
:103330008C2F807F803421F080E2800F883048F02D
:1033400082E00E947B220E94B12191E0D82ED926F2
:1033500001C0D12CCC2EC2948FE0C8228C2D90E0DD
:10336000FC01E759FF4F0C94C02C8C2F807FCF704D
:10337000882311F0C295C07FDD2399F0CC2309F496
:1033800077C180E2800F883010F0011104C08C2FCB
:103390000E94DC2103C08C2F0E94EC210E942B2272
:1033A00067C1802F0E942819CC2309F48BC180E2C9
:1033B000800F883010F0011104C08C2F0E94E22190
:1033C00003C08C2F0E94F2210E942B227BC18C2FE4
:1033D000807FCF70803211F0C295C07F002319F03A
:1033E0000130C9F022C0DD2371F0112341F011300A
:1033F00031F40E940C228C2B0E94142263C10E9483
:103400000C228C2B1DC0112319F0113009F45AC164
:103410000E9421221AC0DD2321F0163008F052C18B
:103420000EC0153008F04EC110C0DD2361F011232D
:1034300031F0F701858180FF1BC18F7085838C2F50
:103440000E9474193FC1111119C18C2F0E947B1960
:1034500039C18C2F86958695837019F0813061F083
:1034600031C1DD2321F0802F9C2F937002C080E0BA
:1034700090E00E9461172EC1DD2321F0802F9C2F48
:10348000937002C080E090E00E94771723C18C2FD8
:10349000837009F045C0D11119C1402F429546955E
:1034A0004770440F440F602F6F70862F90E0A0E0AC
:1034B000B0E0042E04C0880F991FAA1FBB1F0A94F6
:1034C000D2F704FF10C00FE010E020E030E004C0AD
:1034D000000F111F221F331F4A95D2F70095109538
:1034E0002095309503C000E010E09801C695C69580
:1034F000C370BC01CD01602B712B822B932BC2308A
:1035000049F058F4C13019F00E94F61FDFC00E9444
:10351000E41FDCC00E940820D9C00E94E21FD6C070
:10352000DD2319F08C2F817001C08695882309F462
:10353000CDC0402F429546954770440F440F602FF1
:103540006F70862F90E0A0E0B0E0042E04C0880FDA
:10355000991FAA1FBB1F0A94D2F704FF10C00FE0E7
:1035600010E020E030E004C0000F111F221F331FC5
:103570004A95D2F7009510952095309503C000E04C
:1035800010E09801C695C695C370BC01CD01602BB3
:10359000712B822B932BC23049F058F4C13019F0B3
:1035A0000E94BB2093C00E94A92090C00E94CD2001
:1035B0008DC00E941C208AC0CF70DD2339F08C2F73
:1035C0000E944220802F0E94741980C0802F0E9488
:1035D0007B198C2F0E94632079C0023F01F128F4EF
:1035E000003F41F0013FA1F03FC0033FF9F0043F2D
:1035F00039F13AC0DD2341F0153008F063C08C2F5B
:103600008F710E9488205EC0163008F05BC0F7CF33
:10361000DD2339F08C2F8F710E94422053C0DD23AF
:10362000C9F38C2F8F710E9463204CC0DD2329F0D9
:103630008C2F8F710E942D2045C00E94282042C0EF
:10364000DD2349F0CF718C2F0E94422063E08C2F44
:103650000E94602237C081E00E947B22123090F1EC
:1036600082E00E947B222EC0DD2331F0112391F2F3
:10367000802F0E94DA1826C0112399F2093341F4F1
:10368000FFEF27EE83E0F15020408040E1F704C0D7
:10369000EFE3FCE93197F1F700C00000802F0E94B2
:1036A000281910C04C2F4F70602FC7010E94DB05F6
:1036B0000E94531F0FC04C2F4F70602FC7010E94F4
:1036C000DE0508C088EF8C0D843020F40E943B1783
:1036D0000E94D205DD20C9F00E94AD2180FD15C0F9
:1036E000F70112820E94A7210E944220C7010E9476
:1036F000A61B0E94A721DF91CF911F910F91FF90F0
:10370000EF90DF90CF900C946320DF91CF911F91C9
:103710000F91FF90EF90DF90CF9008950F931F933C
:10372000CF93DF93EC01688179818A810E948421A3
:103730008C010E94DF200E94D01FB801CE010E94A0
:103740008219DF91CF911F910F910895CF93DF934D
:10375000EC01988189812B813C81232B31F08F3FB3
:1037600031F481E09F3F19F403C081E001C080E0A3
:1037700080FD19C0CE010E948B0481110CC00E94F3
:10378000B121882381F08A81882369F082E0DF916A
:10379000CF910C947B22CE010E948E1BCE01DF9133
:1037A000CF910C940204DF91CF91089580E090E0D6
:1037B0000E94611780E090E00E9477170E94F92133
:1037C0000E9409220C942B228091170190911801DC
:1037D0000E94FB230C94D61B0E94E9210C94E41B4D
:1037E000E92FE295EF704E2F50E0FA013297EE305C
:1037F000F105B0F4E758FF4F0C94C02C803F91F0D6
:1038000018F4883E68F40EC0843F51F40BC0883E23
:1038100048F0813F29F406C093FB882780F908957A
:1038200080E0089581E008950E9479210E94F01BB4
:103830000895CF93DF9300D000D01F92CDB7DEB7AD
:103840000F900F900F900F900F90DF91CF910895F0
:10385000CF93DF9300D000D000D0CDB7DEB726964F
:103860000FB6F894DEBF0FBECDBFDF91CF910895A4
:103870001F93CF93DF93C0916A0216E080916B0291
:10388000C81799F0D0E01C9FF0011D9FF00D112486
:10389000E459FD4F4081518162817381848195811A
:1038A0000E94281C2196C770E9CFDF91CF911F910C
:1038B000089540919C0250919D0260919E027091EA
:1038C0009F028091A0029091A1020C94281C0F935A
:1038D0001F93CF93DF938091A10282958F7009F09F
:1038E0005DC080919E02882309F458C080916A02CD
:1038F00010916B0260919C0270919D02C0919F0299
:10390000D091A00291E06F3F09F090E0292F06E0EE
:10391000811709F443C0209721F07F3F21F030E068
:1039200003C031E001C0322F90E030FD34C0089F69
:10393000F001099FF00D1124DF01A459BD4F11962C
:103940003C911197371327C03C91361324C012962F
:103950003C91129731111FC013964D915C911497B1
:103960004C1B5D0B483C5105B0F48091A1028F7057
:1039700080618093A102EF58FD4F80818F7080613C
:1039800080838CE992E00E94A61BDF91CF911F916A
:103990000F910C94381C01968770BACFDF91CF91AC
:1039A0001F910F9108959F92AF92BF92CF92DF9295
:1039B000EF92FF920F931F93CF93DF93CDB7DEB7B4
:1039C00061970FB6F894DEBF0FBECDBF8C0185E0C6
:1039D000F801DE011D9601900D928A95E1F7F8013C
:1039E00040815181E28090919C0260919D022091E2
:1039F0009F023091A0022115310531F06F3F31F463
:103A000081E09F3F19F403C081E001C080E0F82FFE
:103A1000F1709F2E80FD46C1F801A380B4808CE92F
:103A2000C82E82E0D82EF0909E02F501E21BF30B27
:103A3000FF2009F4DFC08091A102E83CF10508F005
:103A40009BC0282F207F09F052C0561313C0491382
:103A500011C0FE2CE1100EC08F7080618093A10216
:103A60000E94591CC6010E94A61B8091A102F80168
:103A7000858358C1AB2831F05F3F31F481E04F3F7F
:103A800019F403C081E001C080E080FD03C081E043
:103A90008E2502C080E090E0F82FF170FF2E80FFAD
:103AA0001CC080916A0220916B0236E0821709F4F3
:103AB00017C190E0389FF001399FF00D1124E459AF
:103AC000FD4F6181561306C06081461303C06281B9
:103AD000E61203C001968770E9CFFE2CEE2009F4B0
:103AE00021C18091A10281608093A1025AC0561326
:103AF00006C0491304C0E11002C0F8019FC04D8701
:103B00005E878D859E850E94141C882379F1EE20A6
:103B100069F12091A102822F82958F7090E0029727
:103B200074F080919C0290919D0298878F831986F2
:103B3000BB86AA862C87CE0107960E94A61B86E02C
:103B4000F801ACE9B2E001900D928A95E1F70E948C
:103B5000671C0E94591C0DC0561729F14D875E87BE
:103B60008D859E850E94141C81112CC0C8010E9465
:103B7000A61BFF24F394D6C0282F207F69F77A2D47
:103B8000B98AA88A6E2D89890E94191C8CE992E055
:103B90000E94A61B86E0F60111928A95E9F70E9421
:103BA000591CF12CBFC04913D9CFE110D7CFF80170
:103BB0008583C8010E94A61B86E0F60111928A95B2
:103BC000E9F7B0C0EE2091F22091A102822F8295F8
:103BD0008F7090E002970CF4B2CF80919C0290918C
:103BE0009D029A8389831B82BD82AC822E83CE0183
:103BF0000196A3CFE83CF10508F047C0FE2CEE206B
:103C000009F4B4CF561330C049132EC02091A1023D
:103C100020FD21C0822F82958F70482F50E04115E2
:103C20005105C9F0F80125834F30510541F08F5FF0
:103C3000982F9295907F822F8F70892B8583C80152
:103C40000E94A61B86E0F801ACE9B2E001900D925B
:103C50008A95E1F742C086E0F801ACE9B2E0019054
:103C60000D928A95E1F75EC04D875E878D859E85B2
:103C70000E94141C811163CF8091A1028160809306
:103C8000A102C8010E94A61B4DC07A2DB98AA88A3C
:103C90006E2D89890E94191C86E0F60111928A9581
:103CA000E9F71BC0EE2009F461CF4D875E878D8553
:103CB0009E850E94141CF82E882309F457CF86E0B5
:103CC000F801ACE9B2E001900D928A95E1F78CE938
:103CD00092E00E94D4180E94671C0E94591C22C0C6
:103CE0004D875E878D859E850E947921292F22959B
:103CF0002F70223028F49F7039F0811105C00BC05D
:103D0000243028F49F7049F4805E883020F0C80188
:103D10000E94A61B9F2CF92C05C0F8019581907F6D
:103D200099F7F9CF8F2D61960FB6F894DEBF0FBECD
:103D3000CDBFDF91CF911F910F91FF90EF90DF905A
:103D4000CF90BF90AF909F9008951F93CF93DF9334
:103D5000CDB7DEB72C970FB6F894DEBF0FBECDBF40
:103D60004F83588769877A878B879C87CE01079610
:103D70000E94D31C8823D1F09F8188852A853B85AA
:103D8000232B31F08F3F31F481E09F3F19F403C0C2
:103D900081E001C080E080FD47C04F815885698582
:103DA0007A858B859C850E94281C3EC086E0FE019A
:103DB0003796DE01119601900D928A95E1F7FF8109
:103DC000E8856A857B856115710531F0EF3F31F437
:103DD00081E0FF3F19F403C081E001C080E080FD75
:103DE00023C020916B0230E0C901019687709927AA
:103DF00040916A0250E084179507F1F1F983EA8354
:103E00007D836C8396E0929FD001939FB00D112427
:103E1000A459BD4FFE01319601900D929A95E1F79C
:103E200080936B020E94381C16E080916A02909188
:103E30006B02891771F1189FC001112484599D4F9D
:103E40000E94D31C882329F1E0916A021E9FF00191
:103E50001124E459FD4F4081518162817381848135
:103E600095810E94281C80916A0290E001968770DB
:103E7000992780936A02D9CF0E94EC1B10926B02A3
:103E800010926A02ECE9F2E086E0DF011D928A9569
:103E9000E9F72C960FB6F894DEBF0FBECDBFDF91C9
:103EA000CF911F910895EF92FF920F931F93CF939D
:103EB000DF938C01892B09F46CC0F12CEE24E39480
:103EC000E8012196F8018491843740F4843008F0A9
:103ED00051C0813081F0823019F15BC0853709F41F
:103EE00044C0A8F19CE7980F903708F052C08F7734
:103EF0000E94281941C00E5F1F4FFE01849190E27D
:103F0000980F983050F48770FE2D01C0FF0F8A95EE
:103F1000EAF78F2F0E94FC2114C00E94DA182DC0EE
:103F20000E5F1F4FFE01849190E2980F983060F46D
:103F30008770FE2D01C0FF0F8A95EAF78F2F0E9430
:103F400002220E942B2219C00E94281916C00E5F5F
:103F50001F4FFE01C491CC2381F08FE99FE00197B0
:103F6000F1F700C00000C150F6CF0E5F1F4FFE01F9
:103F7000F49003C00E94DA188E018F2D882309F473
:103F80009FCFEFE9FFE03197F1F700C000008150CB
:103F9000F5CFDF91CF911F910F91FF90EF90089592
:103FA000089508950C94D11F0C94D21F0E94D41F21
:103FB0006093D3027093D4028093D5029093D6027B
:103FC0000C94D61B0C94D61F0F931F930091D30211
:103FD0001091D4022091D5023091D602602B712B22
:103FE000822B932B1F910F910C94D61F0F931F932D
:103FF0000091D3021091D4022091D5023091D602C3
:1040000060237123822393231F910F910C94D61F59
:104010000F931F930091D3021091D4022091D502E7
:104020003091D60260277127822793271F910F9125
:104030000C94D61F0C94D11F0E941A206093CF02BB
:104040007093D0028093D1029093D2020C94D61B2D
:1040500060E070E0CB010C941C200F931F9341E0B3
:1040600050E060E070E08A019B0104C0000F111F66
:10407000221F331F8A95D2F7C901B8011F910F91F2
:104080000C941C200F931F9341E050E060E070E01F
:1040900004C0440F551F661F771F8A95D2F7809181
:1040A000CF029091D002A091D102B091D2028A01A8
:1040B0009B01082B192B2A2B3B2BC901B8011F91FF
:1040C0000F910C941C200F931F9341E050E060E08F
:1040D00070E004C0440F551F661F771F8A95D2F702
:1040E00040955095609570958091CF029091D00247
:1040F000A091D102B091D2028A019B010823192319
:104100002A233B23C901B8011F910F910C941C2055
:104110000F931F9341E050E060E070E004C0440F53
:10412000551F661F771F8A95D2F78091CF02909115
:10413000D002A091D102B091D2028A019B0108273E
:1041400019272A273B27C901B8011F910F910C9409
:104150001C200F931F930091CF021091D002209149
:10416000D1023091D202602B712B822B932B1F91A5
:104170000F910C941C200F931F930091CF0210916C
:10418000D0022091D1023091D20260237123822388
:1041900093231F910F910C941C200F931F93009158
:1041A000CF021091D0022091D1023091D20260272B
:1041B0007127822793271F910F910C941C2008953B
:1041C0002EE0929F800D1124E82FE695E695E69566
:1041D000877051E001C0550F8A95EAF785E0E89FA6
:1041E000F0011124EE55FD4F20E030E070E04081F9
:1041F000CB01022E02C0969587950A94E2F7817052
:10420000819584278523842781932F5F3F4F253015
:10421000310569F708952EE0929F800D1124682FD3
:10422000669566956695982F977085E0689FB001B2
:10423000112440E050E080E0FB01E40FF51FEE5553
:10424000FD4F208130E0092E02C0369527950A9453
:10425000E2F721703327042E01C0220F0A94EAF7F7
:10426000822B4F5F5F4F4530510531F70895BF9264
:10427000CF92DF92EF92FF920F931F93CF93DF9332
:104280008C01C090CF02D090D002E090D102F0908B
:10429000D2028091D3029091D402A091D502B09124
:1042A000D602C82AD92AEA2AFB2ACFE1D0E0D701D0
:1042B000C6010C2E04C0B695A795979587950A94CC
:1042C000D2F780FD04C0219790F7B12C07C0BC2E17
:1042D000B8018C2F0E94E7050197A9F38B2DDF9180
:1042E000CF911F910F91FF90EF90DF90CF90BF90F3
:1042F0000895CF93DF93EC010E943721BE010E9405
:10430000E705DF91CF9108951F93CF93DF93EB01E2
:1043100090916902992321F0CB010E94792113C069
:10432000882349F0CB010E943721182F682FCE0136
:104330000E94E02004C0CB010E940B21182FBE0177
:10434000812F0E94E705DF91CF911F910895809101
:10435000D70285958595859508958091D7028770B8
:1043600008959091D702977081E009F480E0089554
:104370009091210392FB222720F9281751F080FB0E
:1043800092F99093210380912003909121030C9442
:10439000C42208958091210382FB882780F991E04F
:1043A00089270C94B82181E00C94B82180E00C940A
:1043B000B8218091FB0208959091FB02892B809394
:1043C000FB02089580959091FB0289238093FB0264
:1043D00008951092FB0208959091FA02892B809320
:1043E000FA02089580959091FA0289238093FA0247
:1043F00008951092FA0208959091F902892B809302
:10440000F902089580959091F90289238093F90229
:1044100008951092F90208958091D80208950895A0
:104420000C940F220C9410229091210392FD08C04D
:104430009091D802981721F08093D8020C94122200
:1044400008958091D802882329F01092D80280E044
:104450000C9412220895E0911701F09118018091B7
:10446000FB028083E0911701F09118019081809107
:10447000FA02892B8083E0911701F0911801908155
:104480008091F902892B80838091D802882381F062
:10449000E0911701F09118019081892B8083809120
:1044A0001701909118010E944F2381110E9421222F
:1044B00080911701909118010C9447170C940F22CA
:1044C0009091210392FD10C098E0899F90011124E2
:1044D000262B2093D7020E9442208091D7028595F7
:1044E000859585950C945E220C9442201092D702FB
:1044F00080E00C945E222091D702809582238093E5
:10450000D702982F977041F430E0482F082E000C06
:10451000550B2417350721F49091210392FF07C012
:104520008595859585950E9463200C947622089543
:1045300080E008956FEF7FEF80E090E00C94992D7C
:1045400080E090E00E94752D21E08A3E9E4F09F0A8
:1045500020E0822F089582E090E00C94672D83E0A4
:1045600090E00C94672DCF9384E090E00E94672D3B
:10457000C82F82E290E00E94672D2C2F30E0A90125
:10458000582BCA01CF910895CF93C92F682F84E08B
:1045900090E00E947B2D6C2F82E290E0CF910C94F2
:1045A0007B2DAB01BC018FE090E00C948D2DAB0115
:1045B000BC0183E190E00C948D2D60E070E0CB01B4
:1045C0000C94D72260E070E0CB010E94D1220C94C1
:1045D000DD226AEE7EEF80E090E00E94992D60E09F
:1045E00082E090E00E947B2D60E083E090E00E94FA
:1045F0007B2D1092D3021092D4021092D502109209
:10460000D60260E084E090E00E947B2D60E082E2D0
:1046100090E00E947B2D60E085E090E00E947B2D81
:1046200060E086E090E00E947B2D6FEF87E090E0F5
:104630000E947B2D40E050E0BA0188E090E00E94AB
:104640008D2D60E08DE090E00E947B2D40E050E0F9
:10465000BA0188E190E00E948D2D60E087E190E052
:104660000E947B2D40E050E0BA018CE190E00E9476
:104670008D2D60E070E080E290E00E94992D40E096
:1046800050E0BA0188E190E00E948D2D0C94E22266
:104690000C94E922682F8EE090E00C947B2DFC01B5
:1046A000329680912301882331F08091200387FF87
:1046B00002C09EE101C096E080E0915028F0219177
:1046C0002223D9F38F5FF9CF0895662351F120910A
:1046D00023012223E9F02091200327FF19C0462F50
:1046E0004695469546954E31E0F4677021E030E0FE
:1046F00002C0220F331F6A95E2F7FC01E40FF11D9F
:10470000828190E02823392381E0232B69F409C0BA
:10471000FC01329608962191621729F0E817F907F3
:10472000D1F780E0089581E008959C01FC01329664
:104730009FEF80E04191461789F09F3F19F44111A6
:1047400001C0982F8F5F8630A9F79F3F39F0F9019C
:10475000E90FF11D97FDFA956283089508959C0174
:104760002A5F3F4FFC014281461301C0128201962D
:1047700082179307B9F70895262F26952695269533
:104780002E3168F4FC01E20FF11D677021E030E08A
:1047900001C0220F6A95EAF78281282B22830895AF
:1047A000262F2695269526952E3170F4FC01E20FD2
:1047B000F11D677021E030E001C0220F6A95EAF731
:1047C000209582812823228308952091230122238A
:1047D00029F02091200327FD0C94BC230C949523F1
:1047E00020912301222329F02091200327FD0C94FE
:1047F000D0230C94AF2320912301FC013296222375
:1048000031F08091200387FF02C08EE101C086E075
:10481000DF011D928A95E9F7089508950C940D24FF
:104820000C940D24CF930E9410240E9470080E94C3
:104830000E24C0E08C2F0E940C08892B29F4CF5F36
:10484000C530C1F780E001C081E0CF9108950C949C
:104850000D240C94272480917303843049F10E9425
:10486000292480E00E94D2051092FD0220E488E114
:1048700090E00FB6F894A895809360000FBE209347
:10488000600083B7817F846083BF83B7816083BF0B
:104890007894889583B78E7F83BF0FB6F894A895D8
:1048A00080916000886180936000109260000FBE6C
:1048B00008950C940D240E94EC1B0E943B170E944B
:1048C000D2050C9459241F920F920FB60F92112407
:1048D0008F939F93AF93BF938091FD02811113C07B
:1048E00080916B0390916C03A0916D03B0916E0366
:1048F0004196A11DB11D80936B0390936C03A0930F
:104900006D03B0936E03BF91AF919F918F910F9004
:104910000FBE0F901F90189582E084BD93E095BD67
:104920009AEF97BD80936E0008952FB7F894809109
:104930006B0390916C03A0916D03B0916E032FBF38
:1049400008952FB7F89460916B0370916C03809178
:104950006D0390916E032FBF08959C014FB7F8949B
:1049600080916B0390916C03A0916D03B0916E03E5
:104970004FBF821B930B089578941F920F920FB62E
:104980000F9211248F939F93AF93BF9380916B03EA
:1049900090916C03A0916D03B0916E030196A11DDF
:1049A000B11D80936B0390936C03A0936D03B09340
:1049B0006E03BF91AF919F918F910F900FBE0F909B
:1049C0001F90189581E08093E00080E28093D800EA
:1049D0001092C9008FE19EE40197F1F700C000003A
:1049E00087E090EBDC0180937C0390937D03A093A0
:1049F0007E03B0937F039CE088E10FB6F894A895FE
:104A0000809360000FBE90936000FFCF9093E5010C
:104A10008093E401089580911E0308950895CF9333
:104A2000DF9300D01F92CDB7DEB79091730394301F
:104A300011F589837B836A839093E9008FEF9091CE
:104A4000E800815095FD06C095ED9A95F1F70000BC
:104A50008111F5CF8091E80085FF0DC040E050E066
:104A600063E070E0CE0101960E9481278091E8000A
:104A70008E778093E8000F900F900F90DF91CF9189
:104A80000895BC0184E00C940F25BC0183E00C94D4
:104A90000F25CF93DF9320912301222339F020911A
:104AA000200327FF03C060E224E002C068E021E0A9
:104AB0002093E9002FEF3091E800215035FD06C02A
:104AC00035ED3A95F1F700002111F5CF2091E8007E
:104AD00025FF1DC0EC0180912301811105C040E03C
:104AE00050E068E070E003C070E040E050E0CE01CC
:104AF0000E9481278091E8008E778093E80080E211
:104B0000FE01AEEFB2E001900D928A95E1F7DF91E0
:104B1000CF910895CF93603219F52091730324301B
:104B2000F9F4C091E900CF703091EC00232F21708F
:104B300030FD20E8C22B22E02093E9002091E8001C
:104B400020FF0BC040E050E060E270E00E9481274F
:104B50008091E8008E778093E800CF70C093E900E1
:104B6000CF91089580917203811109C00E945D293F
:104B70000E94BA298091E20084608093E200089547
:104B800010927203089508950895089542E061EC2B
:104B900081E00E94D62842E261EC84E00E94D6289F
:104BA00042E261EC82E00E94D62842E260EC83E0BF
:104BB0000C94D62880917503833009F462C030F4D8
:104BC000813071F0823009F49BC008958A3009F475
:104BD00087C08B3009F46DC0893009F0A9C020C0AE
:104BE00080917403813A09F0A3C08091E800877F27
:104BF0008093E8008091780390917903892B21F4C8
:104C000060E28EEF92E003C060E080E090E070E050
:104C10000E9417288091E8008B778093E800089520
:104C200080917403813209F083C080917803909160
:104C30007903009719F0029709F07AC08091E80093
:104C4000877F8093E8008091E80082FD05C0809115
:104C500073038111F8CF6CC02091F3008091F200B2
:104C600090E0922B029729F48091F1008B7F8130A4
:104C700021F48091F10080931E038091E8008B77EE
:104C800053C080917403813A09F052C08091780337
:104C900090917903892B09F04BC08091E800877FC0
:104CA0008093E8008091E80080FFFCCF8091230191
:104CB00036C0809174038132D9F580917803909148
:104CC0007903892BA9F58091E800877F8093E8001C
:104CD0000E940B2980917603809323010C94EC1B96
:104CE00080917403813221F58091E800877F809361
:104CF000E8000E940B298091770380931F03089599
:104D000080917403813AA1F48091E800877F8093B9
:104D1000E8008091E80080FFFCCF80911F03809322
:104D2000F1008091E8008E778093E8000C940B29C5
:104D300008951F93CF93DF93CDB7DEB7A0970FB63B
:104D4000F894DEBF0FBECDBF84B7877F84BF0FB698
:104D5000F894A8958091600088618093600010921B
:104D600060000FBE90E080E80FB6F8948093610079
:104D7000909361000FBE0E94CB170E945D290E9494
:104D8000BA298091E20084608093E20078940E94C6
:104D90004F2C0E94D91789E191E00E94361713E049
:104DA000809173038530A9F480917303853079F481
:104DB0000E942B24809171038823B1F30E94122456
:104DC000882391F30E946B270E94EC1BEDCF0E9479
:104DD0005B240E94E51780917303843009F51093DA
:104DE000E9008091E80082FF1BC08091E80085FF08
:104DF0000AC040E050E060E270E0CE0101960E94FF
:104E0000CC2791E001C090E08091E8008B778093FF
:104E1000E800992329F060E2CE0101960E94D512A4
:104E20000E94D517BDCF0C941527292F3327233087
:104E30003105C9F060F42130310581F022303105AF
:104E400009F041C08BE590E02CEA35E040C021320A
:104E50003105E1F02232310531F135C082E190E0D7
:104E600027E036E034C099278130910549F028F0D9
:104E7000029749F5E0E9F5E005C0E8EAF5E002C08F
:104E8000EEE9F5E0849190E09F0121C06330710567
:104E9000D0F4660F771FFB01E352FE4F2081318172
:104EA00089E090E014C06330710568F4FB01EE0FF7
:104EB000FF1FE952FE4F20813181FB01EC52FE4F72
:104EC000808190E004C080E090E020E030E0FA01D2
:104ED00031832083089580E189BD82E189BD09B4D1
:104EE00000FEFDCF8091D8008F7D8093D800809107
:104EF000E00082608093E0008091E00081FDFCCFC3
:104F00000895CF92DF92EF92FF920F931F93CF936A
:104F1000DF93EC018B017A010E942A29811133C0B1
:104F2000E114F10439F0F70180819181081B190B1C
:104F3000C80FD91FC12CD12C0115110519F1809171
:104F4000E80085FD16C08091E8008E778093E80028
:104F5000E114F10449F0F70180819181C80ED91E56
:104F6000D182C08285E00FC00E942A29882321F3C4
:104F70000AC089918093F10001501109FFEFCF1A07
:104F8000DF0ADACF80E0DF91CF911F910F91FF9080
:104F9000EF90DF90CF900895CF92DF92EF92FF9243
:104FA0000F931F93CF93DF93EC018B017A010E9443
:104FB0002A29811133C0E114F10439F0F70180810D
:104FC0009181081B190BC80FD91FC12CD12C0115B9
:104FD000110519F18091E80085FD16C08091E80067
:104FE0008B778093E800E114F10449F0F7018081A8
:104FF0009181C80ED91ED182C08285E00FC00E9467
:105000002A29882321F30AC08091F1008993015055
:105010001109FFEFCF1ADF0ADACF80E0DF91CF91DD
:105020001F910F91FF90EF90DF90CF900895209106
:105030007A0330917B032617370748F06115710515
:1050400039F42091E8002E772093E80001C0B901DF
:10505000FC0120E06115710579F1809173038823CB
:10506000F1F18530F1F18091E80083FD3CC0809141
:10507000E80082FD2EC08091E80080FFEBCF2091F8
:10508000F3008091F20090E0922B6115710551F0D0
:105090008830910538F421912093F1006150710915
:1050A0000196F3CF21E0089709F020E08091E80015
:1050B0008E778093E800CECF2111CFCF0AC08091A8
:1050C0007303882361F0853061F08091E80083FDEF
:1050D0000AC08091E80082FFF2CF80E0089582E06C
:1050E000089583E0089581E0089520917A03309136
:1050F0007B032617370748F06115710539F42091B5
:10510000E8002E772093E80001C0B901FC0120E0FF
:105110006115710591F180917303882309F440C0F2
:10512000853009F43FC08091E80083FD3DC0809147
:10513000E80082FD2FC08091E80080FFE9CF209138
:10514000F3008091F20090E0922B6115710559F007
:105150008830910540F424912093F10031966150FC
:1051600071090196F2CF21E0089709F020E08091C3
:10517000E8008E778093E800CBCF2111CCCF0AC016
:1051800080917303882361F0853061F08091E8009D
:1051900083FD0AC08091E80082FFF2CF80E008958D
:1051A00082E0089583E0089581E00895982F973074
:1051B00068F59093E900981739F07091EC00209110
:1051C000ED005091F00003C0242F762F50E021FD18
:1051D00002C09F5FECCF3091EB003E7F3093EB003D
:1051E0003091ED003D7F3093ED003091EB00316068
:1051F0003093EB007093EC002093ED005093F0009F
:105200002091EE0027FDE5CF80E008958F70809318
:10521000E90081E008958091740387FF11C08091B7
:10522000E80082FD05C0809173038111F8CF11C0A1
:105230008091E8008B770BC080917303882349F03D
:105240008091E80080FFF8CF8091E8008E7780930E
:10525000E80008952091E4003091E50095E6409142
:10526000EC00842F817040FF23C08091E80080FD16
:105270001DC080917303882399F0853099F0809147
:10528000EB0085FD11C04091E4005091E50024172A
:10529000350729F3915011F09A01E1CF84E0089588
:1052A00082E0089583E0089581E0089580E0089504
:1052B0004091E80042FFDDCF08950E94CB290E9473
:1052C000D329E0EEF0E0808181608083E8EDF0E0BA
:1052D00080818F77808319BCA7EDB0E08C918E7FA1
:1052E0008C9380818F7E80831092720308950F9338
:1052F0001F93CF93DF930E94CB290E94D329C8ED3F
:10530000D0E088818F7788838881806888838881CE
:105310008F7D888319BC1092730310926F031092D3
:1053200071031092700300EE10E0F80180818B7F12
:10533000808388818160888342E060E080E00E9411
:10534000D628E1EEF0E080818E7F8083E2EEF0E00F
:10535000808181608083808188608083F801808182
:105360008E7F8083888180618883DF91CF911F91B8
:105370000F910895E8EDF0E080818F7E8083E7ED66
:10538000F0E080818160808384E082BF81E080934F
:1053900072030C947729E8EDF0E080818E7F8083A2
:1053A0001092E20008951092DA001092E100089540
:1053B0001F920F920FB60F9211242F933F934F938A
:1053C0005F936F937F938F939F93AF93BF93EF936D
:1053D000FF938091E10082FF0BC08091E20082FF89
:1053E00007C08091E1008B7F8093E1000E944E2CEA
:1053F0008091DA0080FF1FC08091D80080FF1BC021
:105400008091DA008E7F8093DA008091D90080FF4E
:105410000DC080E189BD82E189BD09B400FEFDCFE8
:1054200081E0809373030E94B22505C019BC1092DD
:1054300073030E94C0258091E10080FF19C0809114
:10544000E20080FF15C08091E2008E7F8093E20031
:105450008091E20080618093E2008091D8008062B8
:105460008093D80019BC85E0809373030E94C42503
:105470008091E10084FF30C08091E20084FF2CC065
:1054800080E189BD82E189BD09B400FEFDCF809134
:10549000D8008F7D8093D8008091E1008F7E80932B
:1054A000E1008091E2008F7E8093E2008091E20033
:1054B00081608093E20080916F03882311F084E083
:1054C00007C08091E30087FD02C081E001C083E056
:1054D000809373030E94C5258091E10083FF29C05A
:1054E0008091E20083FF25C08091E100877F809357
:1054F000E10082E08093730310926F038091E100DA
:105500008E7F8093E1008091E2008E7F8093E200A5
:105510008091E20080618093E20042E060E080E000
:105520000E94D6288091F00088608093F0000E944D
:10553000C325FF91EF91BF91AF919F918F917F9183
:105540006F915F914F913F912F910F900FBE0F90F0
:105550001F9018951F920F920FB60F9211242F9340
:105560003F934F935F936F937F938F939F93AF93EB
:10557000BF93CF93DF93EF93FF93C091E900CF7078
:105580008091EC00D82FD17080FDD0E81092E90016
:105590008091F000877F8093F00078940E94EE2A3B
:1055A0001092E9008091F00088608093F000CD2B8C
:1055B000CF70C093E900FF91EF91DF91CF91BF9140
:1055C000AF919F918F917F916F915F914F913F919B
:1055D0002F910F900FBE0F901F9018951F93CF9390
:1055E000DF93CDB7DEB7AA970FB6F894DEBF0FBE34
:1055F000CDBFE4E7F3E08091F100819323E0EC3745
:10560000F207C9F70E94DA258091E80083FF2EC1D6
:105610008091740390917503492F50E04A305105F1
:1056200008F024C1FA01E957FF4F0C94C02C8038D0
:1056300021F0823809F01AC108C08091700390915E
:105640007103992389F082600FC0809178038F7075
:10565000873008F00BC18093E9008091EB0085FB57
:10566000882780F91092E9009091E800977F909345
:10567000E8008093F1001092F100D1C0282F2D7F17
:1056800009F0F4C0882319F0823061F0EFC08091F6
:105690007603813009F0EAC0933009F080E080930E
:1056A00071032EC08091760381112AC08091780306
:1056B0008F702FEF280F263008F0D8C08093E900B4
:1056C0002091EB0020FF1CC0933021F48091EB006F
:1056D000806214C09091EB0090619093EB0021E008
:1056E00030E0A90102C0440F551F8A95E2F74093AC
:1056F000EA001092EA008091EB0088608093EB0052
:105700001092E9008091E800877F8093E8000E9472
:105710000B29ACC08111AAC0109176031F7780912C
:10572000E3008078812B8093E3008091E800877FFD
:105730008093E8000E940B298091E80080FFFCCF55
:105740008091E30080688093E300111102C082E041
:1057500001C083E08093730389C08058823008F0D1
:1057600085C080917603909177038C3D53E0950737
:1057700079F583E08A838AE289834FB7F894DE0162
:10578000139620E03EE051E2E32FF0E05093570003
:10579000E49120FF03C0E295EF703F5FEF708E2F22
:1057A00090E0EA3010F0C79601C0C0968D939D93AB
:1057B0002F5F243149F74FBF8091E800877F8093A6
:1057C000E8006AE270E0CE0101960E94172816C038
:1057D0006091780370917903AE014F5F5F4F0E9433
:1057E0001327BC01892B09F441C09091E800977FF1
:1057F0009093E80089819A810E9475288091E80041
:105800008B778093E80032C0803881F58091E80082
:10581000877F8093E80080916F038093F1008091EF
:10582000E8008E7772CF811121C08091760390912C
:10583000770399270297D4F48091E800877F8093BB
:10584000E8008091760380936F030E940B2980917A
:105850006F03811106C08091E30087FD02C081E0E3
:1058600001C084E0809373030E94C6258091E80004
:1058700083FF0AC08091E800877F8093E8008091D1
:10588000EB0080628093EB00AA960FB6F894DEBF1F
:105890000FBECDBFDF91CF911F9108950895CF9393
:1058A000809173038823A1F0C091E900CF7090919B
:1058B000EC00892F817090FD80E8C82B1092E900E0
:1058C0008091E80083FD0E94EE2ACF70C093E9002A
:1058D000CF910895991B79E004C0991F961708F09D
:1058E000961B881F7A95C9F780950895AA1BBB1B44
:1058F00051E107C0AA1FBB1FA617B70710F0A61BD0
:10590000B70B881F991F5A95A9F780959095BC01F0
:10591000CD01089597FB072E16F4009407D077FD6C
:1059200009D00E94762C07FC05D03EF49095819515
:105930009F4F0895709561957F4F0895A1E21A2EAB
:10594000AA1BBB1BFD010DC0AA1FBB1FEE1FFF1F23
:10595000A217B307E407F50720F0A21BB30BE40B73
:10596000F50B661F771F881F991F1A9469F76095BA
:105970007095809590959B01AC01BD01CF01089574
:10598000EE0FFF1F0590F491E02D099469279627EB
:10599000692778278727782708950E94D52C3323F5
:1059A00012F48A1B9B0B0C94E62CA29FB001B39FB0
:1059B000C001A39F700D811D1124911DB29F700D18
:1059C000811D1124911D08950E94D52CB7FF0895C3
:1059D000821B930B08950E94D52CA59F900DB49F18
:1059E000900DA49F800D911D11240895B7FF0C9474
:1059F000EB2C0E94EB2C821B930B08958F929F92AD
:105A0000AF92BF92CF92DF92EF92FF92CF93DF934C
:105A1000EC01688179818A819B816115710581051D
:105A2000910521F464E279ED8BE597E02DE133EF08
:105A300041E050E00E94AF2D49015A019B01AC01A9
:105A4000A7EAB1E40E94EB2C6B017C01ACEEB4EF51
:105A5000A50194010E94F92CDC01CB018C0D9D1D48
:105A6000AE1DBF1DB7FF03C00197A109B0488883D1
:105A70009983AA83BB839F77DF91CF91FF90EF90AB
:105A8000DF90CF90BF90AF909F908F9008950E942D
:105A9000FE2C089580E091E00E94FE2C0895A0E085
:105AA000B0E08093000190930101A0930201B093B4
:105AB00003010895FC014150504030F0019006165A
:105AC000D1F73197CF010895882799270895F9993B
:105AD000FECF92BD81BDF89A992780B50895A6E1C1
